{
  "contractName": "HealthRecords",
  "abi": [
    {
      "inputs": [
        {
          "internalType": "address",
          "name": "",
          "type": "address"
        }
      ],
      "name": "patients",
      "outputs": [
        {
          "internalType": "string",
          "name": "name",
          "type": "string"
        },
        {
          "internalType": "uint256",
          "name": "age",
          "type": "uint256"
        },
        {
          "internalType": "string",
          "name": "disease",
          "type": "string"
        }
      ],
      "stateMutability": "view",
      "type": "function",
      "constant": true
    },
    {
      "inputs": [
        {
          "internalType": "string",
          "name": "_name",
          "type": "string"
        },
        {
          "internalType": "uint256",
          "name": "_age",
          "type": "uint256"
        },
        {
          "internalType": "string",
          "name": "_disease",
          "type": "string"
        }
      ],
      "name": "addPatient",
      "outputs": [],
      "stateMutability": "nonpayable",
      "type": "function"
    },
    {
      "inputs": [
        {
          "internalType": "address",
          "name": "_address",
          "type": "address"
        }
      ],
      "name": "getPatient",
      "outputs": [
        {
          "internalType": "string",
          "name": "",
          "type": "string"
        },
        {
          "internalType": "uint256",
          "name": "",
          "type": "uint256"
        },
        {
          "internalType": "string",
          "name": "",
          "type": "string"
        }
      ],
      "stateMutability": "view",
      "type": "function",
      "constant": true
    }
  ],
  "bytecode": "0x608060405234801561001057600080fd5b506108ad806100206000396000f3fe608060405234801561001057600080fd5b50600436106100415760003560e01c80630869cfbc14610046578063b5368e2014610078578063d65da44a146100aa575b600080fd5b610060600480360381019061005b9190610578565b6100c6565b60405161006f93929190610668565b60405180910390f35b610092600480360381019061008d9190610578565b610200565b6040516100a193929190610668565b60405180910390f35b6100c460048036038101906100bf91906105a1565b61039e565b005b60006020528060005260406000206000915090508060000180546100e9906107a8565b80601f0160208091040260200160405190810160405280929190818152602001828054610115906107a8565b80156101625780601f1061013757610100808354040283529160200191610162565b820191906000526020600020905b81548152906001019060200180831161014557829003601f168201915b50505050509080600101549080600201805461017d906107a8565b80601f01602080910402602001604051908101604052809291908181526020018280546101a9906107a8565b80156101f65780601f106101cb576101008083540402835291602001916101f6565b820191906000526020600020905b8154815290600101906020018083116101d957829003601f168201915b5050505050905083565b60606000606060008060008673ffffffffffffffffffffffffffffffffffffffff1673ffffffffffffffffffffffffffffffffffffffff168152602001908152602001600020604051806060016040529081600082018054610261906107a8565b80601f016020809104026020016040519081016040528092919081815260200182805461028d906107a8565b80156102da5780601f106102af576101008083540402835291602001916102da565b820191906000526020600020905b8154815290600101906020018083116102bd57829003601f168201915b50505050508152602001600182015481526020016002820180546102fd906107a8565b80601f0160208091040260200160405190810160405280929190818152602001828054610329906107a8565b80156103765780601f1061034b57610100808354040283529160200191610376565b820191906000526020600020905b81548152906001019060200180831161035957829003601f168201915b5050505050815250509050806000015181602001518260400151935093509350509193909250565b6040518060600160405280848152602001838152602001828152506000803373ffffffffffffffffffffffffffffffffffffffff1673ffffffffffffffffffffffffffffffffffffffff1681526020019081526020016000206000820151816000019080519060200190610413929190610443565b5060208201518160010155604082015181600201908051906020019061043a929190610443565b50905050505050565b82805461044f906107a8565b90600052602060002090601f01602090048101928261047157600085556104b8565b82601f1061048a57805160ff19168380011785556104b8565b828001600101855582156104b8579182015b828111156104b757825182559160200191906001019061049c565b5b5090506104c591906104c9565b5090565b5b808211156104e25760008160009055506001016104ca565b5090565b60006104f96104f4846106de565b6106ad565b90508281526020810184848401111561051157600080fd5b61051c848285610766565b509392505050565b60008135905061053381610849565b92915050565b600082601f83011261054a57600080fd5b813561055a8482602086016104e6565b91505092915050565b60008135905061057281610860565b92915050565b60006020828403121561058a57600080fd5b600061059884828501610524565b91505092915050565b6000806000606084860312156105b657600080fd5b600084013567ffffffffffffffff8111156105d057600080fd5b6105dc86828701610539565b93505060206105ed86828701610563565b925050604084013567ffffffffffffffff81111561060a57600080fd5b61061686828701610539565b9150509250925092565b600061062b8261070e565b6106358185610719565b9350610645818560208601610775565b61064e81610838565b840191505092915050565b6106628161075c565b82525050565b600060608201905081810360008301526106828186610620565b90506106916020830185610659565b81810360408301526106a38184610620565b9050949350505050565b6000604051905081810181811067ffffffffffffffff821117156106d4576106d3610809565b5b8060405250919050565b600067ffffffffffffffff8211156106f9576106f8610809565b5b601f19601f8301169050602081019050919050565b600081519050919050565b600082825260208201905092915050565b60006107358261073c565b9050919050565b600073ffffffffffffffffffffffffffffffffffffffff82169050919050565b6000819050919050565b82818337600083830152505050565b60005b83811015610793578082015181840152602081019050610778565b838111156107a2576000848401525b50505050565b600060028204905060018216806107c057607f821691505b602082108114156107d4576107d36107da565b5b50919050565b7f4e487b7100000000000000000000000000000000000000000000000000000000600052602260045260246000fd5b7f4e487b7100000000000000000000000000000000000000000000000000000000600052604160045260246000fd5b6000601f19601f8301169050919050565b6108528161072a565b811461085d57600080fd5b50565b6108698161075c565b811461087457600080fd5b5056fea264697066735822122019cd001873e6efc47b72b80789e821f9fb794b2fc047039c977a5b338622baaa64736f6c63430008000033",
  "immutableReferences": {},
  "source": "// SPDX-License-Identifier: MIT\r\npragma solidity ^0.8.0;\r\n\r\ncontract HealthRecords {\r\n    struct Patient {\r\n        string name;\r\n        uint age;\r\n        string disease;\r\n    }\r\n\r\n    mapping(address => Patient) public patients;\r\n\r\n    // Function to add a patient\r\n    function addPatient(string memory _name, uint _age, string memory _disease) public {\r\n        patients[msg.sender] = Patient(_name, _age, _disease);\r\n    }\r\n\r\n    // Function to get patient details\r\n    function getPatient(address _address) public view returns (string memory, uint, string memory) {\r\n        Patient memory patient = patients[_address];\r\n        return (patient.name, patient.age, patient.disease);\r\n    }\r\n}\r\n",
  "sourcePath": "C:\\Users\\shour\\OneDrive\\Desktop\\12-10-24\\healthcare-blockchain\\contracts\\PatientClaim.sol",
  "compiler": {
    "name": "solc",
    "version": "0.8.0+commit.c7dfd78e.Emscripten.clang"
  },
  "schemaVersion": "3.4.16",
  "updatedAt": "2024-12-11T08:13:28.761Z",
  "networkType": "ethereum",
  "devdoc": {
    "kind": "dev",
    "methods": {},
    "version": 1
  },
  "userdoc": {
    "kind": "user",
    "methods": {},
    "version": 1
  }
}