{
  "contractName": "PatientClaim",
  "abi": [
    {
      "inputs": [
        {
          "internalType": "address",
          "name": "",
          "type": "address"
        }
      ],
      "name": "patients",
      "outputs": [
        {
          "internalType": "string",
          "name": "name",
          "type": "string"
        },
        {
          "internalType": "uint256",
          "name": "age",
          "type": "uint256"
        },
        {
          "internalType": "string",
          "name": "disease",
          "type": "string"
        }
      ],
      "stateMutability": "view",
      "type": "function",
      "constant": true
    },
    {
      "inputs": [
        {
          "internalType": "address",
          "name": "_address",
          "type": "address"
        },
        {
          "internalType": "string",
          "name": "_name",
          "type": "string"
        },
        {
          "internalType": "uint256",
          "name": "_age",
          "type": "uint256"
        },
        {
          "internalType": "string",
          "name": "_disease",
          "type": "string"
        }
      ],
      "name": "addPatient",
      "outputs": [],
      "stateMutability": "nonpayable",
      "type": "function"
    },
    {
      "inputs": [
        {
          "internalType": "address",
          "name": "_address",
          "type": "address"
        }
      ],
      "name": "getPatient",
      "outputs": [
        {
          "internalType": "string",
          "name": "",
          "type": "string"
        },
        {
          "internalType": "uint256",
          "name": "",
          "type": "uint256"
        },
        {
          "internalType": "string",
          "name": "",
          "type": "string"
        }
      ],
      "stateMutability": "view",
      "type": "function",
      "constant": true
    }
  ],
  "bytecode": "0x608060405234801561001057600080fd5b506108c2806100206000396000f3fe608060405234801561001057600080fd5b50600436106100415760003560e01c80630869cfbc14610046578063b5368e2014610078578063ff1d6cad146100aa575b600080fd5b610060600480360381019061005b9190610579565b6100c6565b60405161006f9392919061067d565b60405180910390f35b610092600480360381019061008d9190610579565b610200565b6040516100a19392919061067d565b60405180910390f35b6100c460048036038101906100bf91906105a2565b61039e565b005b60006020528060005260406000206000915090508060000180546100e9906107bd565b80601f0160208091040260200160405190810160405280929190818152602001828054610115906107bd565b80156101625780601f1061013757610100808354040283529160200191610162565b820191906000526020600020905b81548152906001019060200180831161014557829003601f168201915b50505050509080600101549080600201805461017d906107bd565b80601f01602080910402602001604051908101604052809291908181526020018280546101a9906107bd565b80156101f65780601f106101cb576101008083540402835291602001916101f6565b820191906000526020600020905b8154815290600101906020018083116101d957829003601f168201915b5050505050905083565b60606000606060008060008673ffffffffffffffffffffffffffffffffffffffff1673ffffffffffffffffffffffffffffffffffffffff168152602001908152602001600020604051806060016040529081600082018054610261906107bd565b80601f016020809104026020016040519081016040528092919081815260200182805461028d906107bd565b80156102da5780601f106102af576101008083540402835291602001916102da565b820191906000526020600020905b8154815290600101906020018083116102bd57829003601f168201915b50505050508152602001600182015481526020016002820180546102fd906107bd565b80601f0160208091040260200160405190810160405280929190818152602001828054610329906107bd565b80156103765780601f1061034b57610100808354040283529160200191610376565b820191906000526020600020905b81548152906001019060200180831161035957829003601f168201915b5050505050815250509050806000015181602001518260400151935093509350509193909250565b6040518060600160405280848152602001838152602001828152506000808673ffffffffffffffffffffffffffffffffffffffff1673ffffffffffffffffffffffffffffffffffffffff1681526020019081526020016000206000820151816000019080519060200190610413929190610444565b5060208201518160010155604082015181600201908051906020019061043a929190610444565b5090505050505050565b828054610450906107bd565b90600052602060002090601f01602090048101928261047257600085556104b9565b82601f1061048b57805160ff19168380011785556104b9565b828001600101855582156104b9579182015b828111156104b857825182559160200191906001019061049d565b5b5090506104c691906104ca565b5090565b5b808211156104e35760008160009055506001016104cb565b5090565b60006104fa6104f5846106f3565b6106c2565b90508281526020810184848401111561051257600080fd5b61051d84828561077b565b509392505050565b6000813590506105348161085e565b92915050565b600082601f83011261054b57600080fd5b813561055b8482602086016104e7565b91505092915050565b60008135905061057381610875565b92915050565b60006020828403121561058b57600080fd5b600061059984828501610525565b91505092915050565b600080600080608085870312156105b857600080fd5b60006105c687828801610525565b945050602085013567ffffffffffffffff8111156105e357600080fd5b6105ef8782880161053a565b935050604061060087828801610564565b925050606085013567ffffffffffffffff81111561061d57600080fd5b6106298782880161053a565b91505092959194509250565b600061064082610723565b61064a818561072e565b935061065a81856020860161078a565b6106638161084d565b840191505092915050565b61067781610771565b82525050565b600060608201905081810360008301526106978186610635565b90506106a6602083018561066e565b81810360408301526106b88184610635565b9050949350505050565b6000604051905081810181811067ffffffffffffffff821117156106e9576106e861081e565b5b8060405250919050565b600067ffffffffffffffff82111561070e5761070d61081e565b5b601f19601f8301169050602081019050919050565b600081519050919050565b600082825260208201905092915050565b600061074a82610751565b9050919050565b600073ffffffffffffffffffffffffffffffffffffffff82169050919050565b6000819050919050565b82818337600083830152505050565b60005b838110156107a857808201518184015260208101905061078d565b838111156107b7576000848401525b50505050565b600060028204905060018216806107d557607f821691505b602082108114156107e9576107e86107ef565b5b50919050565b7f4e487b7100000000000000000000000000000000000000000000000000000000600052602260045260246000fd5b7f4e487b7100000000000000000000000000000000000000000000000000000000600052604160045260246000fd5b6000601f19601f8301169050919050565b6108678161073f565b811461087257600080fd5b50565b61087e81610771565b811461088957600080fd5b5056fea2646970667358221220a5338d00a790373975f797eaab8c525ff0987f16cc4451b186afab60c49e950e64736f6c63430008000033",
  "immutableReferences": {},
  "source": "// SPDX-License-Identifier: MIT\r\npragma solidity ^0.8.0;\r\n\r\ncontract PatientClaim {\r\n    struct Patient {\r\n        string name;\r\n        uint age;\r\n        string disease;\r\n    }\r\n\r\n    mapping(address => Patient) public patients;\r\n\r\n    // Add a patient\r\n    function addPatient(address _address, string memory _name, uint _age, string memory _disease) public {\r\n        patients[_address] = Patient(_name, _age, _disease);\r\n    }\r\n\r\n    // Get patient details\r\n    function getPatient(address _address) public view returns (string memory, uint, string memory) {\r\n        Patient memory p = patients[_address];\r\n        return (p.name, p.age, p.disease);\r\n    }\r\n}\r\n",
  "sourcePath": "C:\\Users\\shour\\OneDrive\\Desktop\\12-10-24\\healthcare-blockchain\\contracts\\PatientClaim.sol",
  "compiler": {
    "name": "solc",
    "version": "0.8.0+commit.c7dfd78e.Emscripten.clang"
  },
  "schemaVersion": "3.4.16",
  "updatedAt": "2024-12-11T08:21:32.600Z",
  "networkType": "ethereum",
  "devdoc": {
    "kind": "dev",
    "methods": {},
    "version": 1
  },
  "userdoc": {
    "kind": "user",
    "methods": {},
    "version": 1
  }
}